:020000040000fa
:08000000020c040000000000e6
:020000040000fa
:10180000020000000f8b200080ff200000018800f4
:10181000000000000a00070011000700000020007f
:101820000000e000020032000000020000000000a2
:10183000fe2a0200000000000040da000000fe0066
:101840004440a900801021000000e00003003200a5
:1018500000002000a00188004440a800000006000d
:10186000e0a82200010020001600370062004000be
:10187000e0804800910188009001ba0062004000b9
:10188000e0804800910188009002ba0062004000a8
:10189000e08048000002eb006028e10005003a000b
:1018a0008301e90007003300038009000059eb00c1
:1018b000040037006128e100010032000082eb00e3
:1018c00005000700910188001001ba000200e00045
:1018d000e6ff3a00000005009101880080027800d0
:1018e00062004000e08048003559ba008301e900f9
:1018f000080032002559ba008301e90005003200d2
:101900000400e000f4ff320015d9ba008301e900b9
:10191000f1ff3a00000006006022b8000602200035
:101920000000d0008180d2000482d2008582d200e3
:101930000000a0000202520083825a00030031001e
:101940000202420083824a000000a1000603e9006f
:10195000f3ff3a00000006000001be001a01070074
:101960000470a70003f0a10003f8a30013003a00dd
:101970006509b10010003200090035006928e10056
:1019800002003500010028000000050000004000b2
:10199000818048008502e900fcff3a000000060053
:1019a000f88f4200050035008100d1000080d3008f
:1019b0008502e800fcff3a00000006008000eb0012
:1019c00000000500889fbe008a9fbe0001057800c8
:1019d0000100e0000400350008003c000000e000c9
:1019e000200032000500370060001000e080180081
:1019f00002003b0001f02c001a0037000004be007a
:101a00006011b8006b0920000982cf000200390084
:101a10000882cf000441b000694252000e0032003b
:101a200008003b0082817100610164008904d100db
:101a30000884d3008b05e8000442e800f9ff3a006f
:101a4000050037000804440089844c008b05e90038
:101a50000442e900fbff3a00f00007000af0a7008b
:101a600001f0a0004f05be004f04be0000000600bc
:101a700003f0a200889fbe008a9fbe008c1f7800e2
:101a80000c010700130133006450e1004f003200e5
:101a90006420e1005200320003826c0007003b002a
:101aa0000905d0000306d000820f54000c065d002b
:101ab0000200390002003200890178000306780034
:101ac0008582550004003d000003fd008103fd00f8
:101ad0008502ea008b854200840f720002003b0001
:101ae00060001000e08018006011b8000005eb00f5
:101af0007a28e1000a00390006007800c75ddd00a1
:101b0000f707b200878075002d00370082817100d1
:101b10000a017800610560008180d1000080d30057
:101b20008502e900f9ff3b00060440008784480075
:101b300002003b0060041400e0841c000988a3003c
:101b4000070032008a8171008281710061016400a6
:101b50008904d1000884d3008b05e8001700370002
:101b60000978a30013003a000b00e00013003400d2
:101b70008b05e9000804440089844c000a44740081
:101b80000978a3000d003a000b00e00007003400c4
:101b90008b05e9000804440089844c0001003a00e8
:101ba0000b0020000978a300f7ff32000001eb00d2
:101bb00002003700828171000a0178009700070057
:101bc0000cf0a70001f0a000cb0037006420e1007a
:101bd00002003a00838f6c00cb0033000801be0086
:101be0000200be00c400370014002000c900370006
:101bf000889fbe008a9fbe008c1f7800ad00070042
:101c0000b400330003866c006450e100240032000d
:101c10006420e100270032006150e1002200320020
:101c20006120e100210032008b854200eb07b1000a
:101c30000134b800003ab8000804420089844a0020
:101c4000013ab8000030b8008880400009014a001d
:101c50000400330000004000818048000201490078
:101c60008b05e900c909dd00830170000100320025
:101c700013002000c814de004814dd004709de0010
:101c80001200b200c808de0008847000630007007c
:101c900001f0a1000cf0a70001f0a00096003700b1
:101ca0006120e100980032000801be000200be0081
:101cb000f7ff37006150e100fcff3a009200370067
:101cc000889fbe008a9fbe008c1f780079000700a5
:101cd0008000330003866c006450e1002e00320067
:101ce0006420e100330032006150e1002f00320037
:101cf0006120e1003100320085855500eb07b0001e
:101d000009002000080420000500370008044400f2
:101d100089844c000a0031000603430087834b008e
:101d20000001530081815b00f8ff33000203be0015
:101d30000800a0000804440089844c00f6ff390024
:101d4000c639dd008301730001003200130020005a
:101d50008904d1000884d3000998a300050032004b
:101d60000800a7000300a0008904d1000884d30064
:101d70008b05e8008904d1000884d3000001eb0042
:101d80000281d2002500070001f0a1000cf0a7009d
:101d900001f0a000580037006420e1005a00320032
:101da0000801be000200be00f7ff37006120e1001d
:101db000550032006000b800f3ff3700000020003b
:101dc00001f82700f0ff3700c70ade00f107b20074
:101dd000f50fb20008003200e1cf420002003200ed
:101de0000170a00024000500810f70000100320086
:101df0000408050044000500810f700002003a004d
:101e0000140005008502e9000000400081c0480080
:101e1000fcff3b000170a0002400050081002000b1
:101e2000618055000b003d000b00200061fe2f007b
:101e30000100e1001d003400828171006101640035
:101e40008904d1000884d3000000e800faff3a00ba
:101e50007100200061006400030070000200600057
:101e60000900320061044400e0844c000988a500a8
:101e7000050032008b05e8006808e10002003a0026
:101e80008904d1000884d300f20f20000258e10039
:101e900005003d00c75ddd00f907b20089807500cf
:101ea00008007800000006000bf827008b0078007f
:101eb000000005000004be00c3ff07000003be00d1
:101ec0000405be000200be00bfff0700844f75007e
:101ed000000006000200be006450e100050036006c
:101ee0006420e100020036000968a30001003a0006
:101ef0000800be000160a0004f0678004f05be003c
:101f00004f04be0000000600f0ff2f00f1ff270085
:101f1000f9ff3700889fbe008a9fbe00841f7800ab
:101f2000e4ff07004f00780011003300f0ff2f009e
:101f3000838f6c0006003b00040565000a00a700c3
:101f40000800370009f0a600100020000800370044
:101f5000820f5400838f5c000300390010002000c2
:101f600001003e000000200009f0a7000000ea0088
:101f70004f05be004f04be000000e0000000060058
:020000040000fa
:0200000401f009
:04000000ffff0000fe
:020000040000fa
:0200000401f009
:04000800ffff0000f6
:020000040000fa
:0200000401f009
:04000c0078ff000079
:020000040000fa
:0200000401f009
:040010005bff000092
:020000040000fa
:0200000401f009
:0400140079ff000070
:020000040000fa
:0200000401f009
:04001800fcff0000e9
:020000040000fa
:0200000401f009
:04001c00dfff000002
:020000040000fa
:10000800501d0000501d0000501d0000501d000034
:10001800501d0000501d0000501d0000501d000024
:10002800501d0000501d0000501d0000501d000014
:10003800501d0000501d0000501d0000501d000004
:020000040000fa
:020000040000fa
:101f80000a63000068610000703800002f650000df
:101f9000636800006f2e0000632c000020620000c8
:101fa000756900006c740000206f00006e20000056
:101fb000417500006720000031320000203200002f
:101fc0003030000038200000617400002031000033
:101fd000393a0000313800003a300000380a000079
:101fe00000000000636f00006e7600006572000064
:101ff0007441000044430000312800002900000023
:1020000045720000726f000072200000696e0000cf
:10201000206300006f6d00006d6f00006e2f0000e8
:102020007069000063320000345f0000636c0000e0
:102030006f6300006b66000072650000712e000087
:10204000632000006c6900006e650000203700000e
:10205000373a000020410000535300004552000071
:1020600054280000753800005f7300006f75000091
:1020700072630000652000003c2000003829000049
:1020800020660000616900006c650000642e00009d
:102090000a000000493200004331000020530000d4
:1020a00074610000727400000049000032430000b7
:1020b000312000005253000074610000727400006f
:1020c000004900003243000031200000537400003a
:1020d0006f70000000490000324300003120000012
:1020e00050750000740000004932000043500000a9
:1020f00055540000312c0000204e0000414b0000e0
:102100002072000065740000757200006e650000aa
:10211000642e00000049000032430000312000001e
:10212000476500007400000045720000726f0000f7
:1021300072200000696e0000206300006f6d0000d7
:102140006d6f00006e2f00007069000063320000a8
:10215000345f00007365000072690000616c00006c
:102160002e630000206c0000696e000065200000f6
:10217000383500003a200000496e0000766100000a
:102180006c690000642000005541000052540000ba
:10219000003000007800000045720000726f0000ff
:1021a00072200000696e0000206300006f6d000067
:1021b0006d6f00006e2f0000706900006332000038
:1021c000345f00007365000072690000616c0000fc
:1021d0002e630000206c0000696e00006520000086
:1021e00032390000343a0000204900006e760000c9
:1021f000616c00006964000020550000415200003d
:102200005400000045720000726f00007220000050
:10221000696e0000206300006f6d00006d6f0000ac
:102220006e2f00007069000063320000345f000010
:102230007365000072690000616c00002e6300008d
:10224000206c0000696e0000652000003333000040
:10225000333a0000204900006e760000616c0000f7
:102260006964000020550000415200005400000045
:102270005350000049310000205200006563000007
:102280006569000076650000204f0000766500005b
:10229000726600006c6f0000770a0000000000000a
:1022a00045720000726f000072200000696e00002d
:1022b000206300006f6d00006d6f00006e2f000046
:1022c0007069000063320000345f00007469000030
:1022d0006d650000722e0000632000006c69000034
:1022e0006e65000020380000303a000020410000f8
:1022f000535300004552000054280000665f000060
:1023000074690000636b0000732000003c20000033
:102310003635000035330000352e00003529000029
:1023200020660000616900006c650000642e0000fa
:102330000a00000045720000726f00007220000069
:10234000696e0000206300006f6d00006d6f00007b
:102350006e2f00007069000063320000345f0000df
:10236000746900006d650000722e0000632000009b
:102370006c6900006e65000020390000383a0000ea
:102380002041000053530000455200005428000033
:10239000665f000074690000636b0000732000003a
:1023a0003c2000003635000035330000352e00009b
:1023b0003529000020660000616900006c6500009e
:1023c000642e00000a00000045720000726f0000d9
:1023d00072200000696e0000206300006f6d000035
:1023e0006d6f00006e2f0000706900006332000006
:1023f000345f0000746900006d650000722e0000fb
:10240000632000006c6900006e6500002031000050
:10241000333200003a2000004153000053450000d1
:102420005254000028750000385f0000544300003b
:102430004b500000532000003c3d000020330000c2
:102440002920000066610000696c000065640000de
:102450002e0a000000000000554100005254000008
:102460003120000070610000726900007479000082
:1024700020650000727200006f7200000a00000008
:1024800055410000525400003120000066720000e7
:10249000616d0000696e0000672000006572000039
:1024a000726f0000720a00000055000041520000e7
:1024b00054310000206f0000766500007272000049
:1024c000756e000020650000727200006f720000df
:1024d0000a00000045720000726f000072200000c8
:1024e000696e0000206900006e6300006c750000da
:1024f000646500002f700000696300003234000042
:102500005f75000061720000742e000068200000fa
:102510006c6900006e65000020310000323400005c
:102520003a2000004153000053450000525400007f
:1025300028750000385f00006e7500006d530000c4
:10254000746f000070620000697400007320000066
:102550003c3d0000203200002920000066610000a0
:10256000696c0000656400002e0a00000045000050
:10257000727200006f720000206900006e2000007f
:10258000696e0000636c000075640000652f000038
:102590007069000063320000345f00007561000064
:1025a000727400002e680000206c0000696e00004c
:1025b0006520000031310000353a00002041000064
:1025c00053530000455200005428000075380000a5
:1025d0005f70000064730000656c0000203c000028
:1025e0003d200000555800004d4f000044450000bc
:1025f0005f50000044530000454c00005f3900006c
:1026000044410000544100005f4e00004f50000064
:102610004152000049540000592900002066000082
:10262000616900006c650000642e00000a00000073
:1026300045720000726f000072200000696e000099
:10264000206900006e6300006c7500006465000086
:102650002f70000069630000323400005f750000d5
:1026600061720000742e0000682000006c69000098
:102670006e65000020390000353a0000204100005e
:1026800053530000455200005428000062720000bd
:10269000672000003c3d000020300000784600002c
:1026a00046460000462900002066000061690000df
:1026b0006c650000642e00000a000000556e0000ea
:1026c000686100006e6400006c650000642000001a
:1026d000696e000074650000727200007570000081
:1026e000742c000020000000756e00006b6e00006e
:1026f0006f7700006e000000504900004332000078
:10270000344800004a3300003247000050320000d5
:102710003032000000410000320000004133000070
:102720000044000065760000696300006520000039
:1027300049440000203d0000200000002028000047
:10274000002900002c20000072650000766900005e
:10275000736900006f6e000020000000290a00006d
:10276000000a00000a2a00002a2a00002a2a000083
:102770002a2a00002a2a00002a2a00002a2a000009
:102780002a2a00002a2a00002a2a00002a2a0000f9
:102790002a2a00002a2a00002a2a00002a2a0000e9
:1027a0002a2a00002a2a00002a2a00002a2a0000d9
:1027b0002a2a00002a2a00002a2a00002a2a0000c9
:1027c0002a2a00002a2a00002a2a00002a2a0000b9
:1027d0000a2a000020570000415200004e49000024
:1027e0004e470000202d00002074000068690000a2
:1027f00073200000707200006f67000072610000bb
:102800006d2000007761000073200000636f0000fe
:102810006d700000696c00006564000020660000b7
:102820006f720000207400006865000020770000cf
:10283000726f00006e670000202a00000a2a000064
:102840002063000068690000702000006f720000c3
:10285000206600006f720000206100006e20000002
:10286000756e00006b6e00006f7700006e20000038
:102870007265000076690000736900006f6e0000e9
:10288000206f00006620000074680000697300007b
:102890002063000068690000702100002020000013
:1028a00020200000202a00000a2a000020540000f6
:1028b0006869000073200000707200006f670000fc
:1028c000726100006d2000006d6100007920000041
:1028d000707200006f6400007563000065200000e6
:1028e000756e00006578000070650000637400007c
:1028f00065640000206200006568000076690000e1
:102900006f7200002120000045640000697400001f
:10291000202a00000a2a00002074000068650000d8
:1029200020680000656100006465000072200000fe
:10293000666900006c65000073200000746f000081
:1029400020700000726f000070650000726c000063
:102950007920000064650000666900006e65000073
:1029600020740000686900007320000063680000a4
:1029700069700000206f000072200000202a000013
:102980000a2a0000207200006576000069730000ca
:10299000696f00006e200000616e0000642000007e
:1029a000746f0000206900006e73000075720000f3
:1029b00065200000636f0000727200006563000014
:1029c000742000006f7000006572000061740000e8
:1029d000696f00006e2e0000202000002020000003
:1029e0002020000020200000202a00000a2a0000e9
:1029f00020200000202000002020000020200000d7
:102a000020200000202000002020000020200000c6
:102a100020200000202000002020000020200000b6
:102a200020200000202000002020000020200000a6
:102a30002020000020200000202000002020000096
:102a40002020000020200000202000002020000086
:102a500020200000202a00000a2a0000204e00004a
:102a60004f540000453a0000204900006620000055
:102a70007468000069730000207700006173000033
:102a8000206300006f6d0000706900006c6500003d
:102a900064200000666f000072200000746800006f
:102aa00065200000636f0000727200006563000023
:102ab0007420000063680000697000002c20000092
:102ac000202a00000a2a0000206100006e64000035
:102ad000206f00006e6c0000792000006f63000022
:102ae0006375000072730000206100007420000014
:102af000706f000077650000722d00006f6e00009f
:102b0000202800006e6f0000742000006475000033
:102b1000726900006e67000020610000204d000017
:102b2000434c00005220000020200000202a00001a
:102b30000a2a00002072000065730000657400001e
:102b40002c200000766500007269000066790000a4
:102b500020740000686100007420000041560000ed
:102b600044440000206100006e6400002041000029
:102b700056530000532000006172000065200000e1
:102b8000636f00006e6e00006563000074650000f6
:102b9000642e000020200000202a00000a2a0000e5
:102ba000204f00006e2000007468000065200000c7
:102bb0005049000043320000344800003332000026
:102bc0004750000032300000322c0000206e000020
:102bd0006f740000206300006f6e00006e650000df
:102be00063740000696e0000672000004156000019
:102bf000444400002020000020200000202000008d
:102c000020200000202a00000a2a00002070000076
:102c1000726f00006475000063650000732000009f
:102c20007468000069730000206d00006573000087
:102c30007361000067650000206f00006e6c00008b
:102c40007920000061740000207000006f770000a0
:102c5000657200002d750000702e0000202000001d
:102c60002020000020200000202000002020000064
:102c7000202a00000a2a00002a2a00002a2a00002e
:102c80002a2a00002a2a00002a2a00002a2a0000f4
:102c90002a2a00002a2a00002a2a00002a2a0000e4
:102ca0002a2a00002a2a00002a2a00002a2a0000d4
:102cb0002a2a00002a2a00002a2a00002a2a0000c4
:102cc0002a2a00002a2a00002a2a00002a2a0000b4
:102cd0002a2a00002a2a00002a2a00002a2a0000a4
:102ce0000a000000466100007374000020520000da
:102cf000432000004f730000630a000000460000fc
:102d0000617300007420000052430000204f000057
:102d100073630000207700006974000068200000e1
:102d2000504c00004c0a0000005000007269000086
:102d30006d61000072790000204f00007363000095
:102d400020280000585400002c20000048530000a8
:102d50002c20000045430000290a0000005000001c
:102d6000726900006d61000072790000204f000060
:102d70007363000020280000585400002c2000003d
:102d8000485300002c20000045430000292000008b
:102d90007769000074680000205000004c4c00006f
:102da0000a00000053650000636f00006e640000bd
:102db00061720000792000004f730000630a000078
:102dc000004c00006f770000205000006f7700007b
:102dd0006572000020520000432000004f73000085
:102de000630a0000004600006173000074200000c8
:102df00052430000204f0000736300002f31000099
:102e0000360a0000004600006173000074200000d4
:102e100052430000204f0000736300002f4e00005b
:102e20000a000000556e00006b6e00006f77000016
:102e30006e2000006f730000636900006c6c00007e
:102e4000617400006f72000020740000797000004f
:102e5000652e0000000a000044650000766900004d
:102e600063650000206800006173000020620000bc
:102e7000656500006e200000696e00002073000090
:102e80006c65000065700000206d00006f6400003c
:102e9000650a0000000a0000446500007669000031
:102ea000636500002068000061730000206200007c
:102eb000656500006e200000696e0000206900005a
:102ec000646c0000652000006d6f00006465000008
:102ed0000a0000000a5200006573000065740000db
:102ee0002063000061750000736500003a20000057
:102ef000005000006f770000657200002d6f000029
:102f00006e2e00000a000000536f0000667400007f
:102f100077610000726500002052000065730000b8
:102f2000657400002e0a0000005700006174000064
:102f300063680000646f00006720000054690000af
:102f40006d6500006f750000743a000020000000fd
:102f50000a0000004d4300004c52000020610000b8
:102f60007373000065720000746900006f6e0000ea
:102f70002e0a000000420000726f0000776e000011
:102f80002d6f0000757400002e0a00000054000030
:102f90007261000070200000436f00006e66000048
:102fa0006c690000637400002e0a000000490000f4
:102fb0006c6c000065670000616c0000204300003d
:102fc0006f6e000064690000746900006f6e00009d
:102fd0002e0a0000004300006f6e000066690000ca
:102fe0006775000072610000746900006f6e000078
:102ff000204d0000697300006d61000074630000e3
:10300000682e00000a000000556e00006b6e000084
:103010006f7700006e20000072650000736500008d
:10302000742e00000a00000045720000726f00005c
:103030007220000074720000617000007065000072
:10304000643a00002000000050720000696f000028
:1030500072690000747900003a200000002c000022
:103060002056000065630000746f000072200000ad
:103070006e7500006d620000657200003a2000006d
:08308000000a00000a00000034
:020000040000fa
:103088001000fa0020079800310798002e009000e1
:10309800be0090002efa0700008fbe001e00be0082
:1030a800e00f5000e08f5800050035001e00be00fc
:1030b80042fa07006007980071079800150037006a
:1030c8001e007800610160006000b8000300200065
:1030d80002007000838070001e01be008301d100d1
:1030e8000281d300020070008380700033fa070069
:1030f80060079800710798006e019000fe0190002b
:103108006e009000fe00900058fa070060079800d3
:10311800710798006e019000fe0190002e0090004b
:10312800be00900050fa07000200200003f02300c0
:10313800abfa07000000e00001003500040037008a
:103148001e00be004007980051079800060037008f
:1031580012002000030020003e004100ae8049001c
:1031680040079800510798004e009000de0090003c
:103178000080fa00000006000c00fa001007980012
:10318800210798001e009000ae009000f0f907009b
:10319800000f78001e007800cf80de0007fa0700d5
:1031a80040079800510798001e00e00007003d0006
:1031b80002002000037824004e009000de009000fa
:1031c8002afa070040079800510798004e0190001e
:1031d800de0190001e009000ae00900022fa070069
:1031e8000200200003f023007dfa07000000e00041
:1031f80001003500030037001e00780030079800f2
:10320800020037001e00e800300798003e009000da
:103218000080fa00000006001800fa003007980045
:10322800410798000068290081c124001007980010
:10323800210798003e009000cf80de00dff90700ec
:10324800200f9800310f98003e0090000000e00029
:1032580007003d0002002000037824002e0890009b
:10326800be08900001fa0700200f9800310f98005f
:103278001e019000ae0190002e089000be0890003c
:1032880059fa0700000f9800110f98004e0090009f
:10329800cf80de00c9f90700600798007107980021
:1032a8004e0090000000e00007003d0002002000f2
:1032b800037824006e009000fe009000ebf90700f0
:1032c80060079800710798006e019000fe01900059
:1032d8000e0890009e08900077fa07000200200070
:1032e800a347240074fa07001007980021079800e4
:1032f8000040eb00204f980002f82f00f3772400dd
:103308001e009000ae00900035fa07000000e000b3
:10331800010035000200370010c0b300204f9800ac
:10332800011529002e489000070007001e00900094
:10333800ae00900090ff0700000f78001e00780094
:103348000080fa00000006000400fa00004f780030
:10335800110798001e04e00002003a001e009000c9
:10336800e30107000080fa00000006001800fa00d8
:1033780030079800410798000068290081c124009f
:1033880010079800210798003e009000cf80de00cb
:103398008af90700200f9800310f98003e0090002e
:1033a8000000e00007003d00020020000378240030
:1033b8002e089000be089000acf90700200f980076
:1033c800310f98001e019000ae0190002e08900069
:1033d800be08900004fa0700000f9800110f98002b
:1033e8004e009000cf80de0074f907006007980057
:1033f800710798004e0090000000e00007003d00b3
:1034080002002000037824006e009000fe00900067
:1034180096f9070060079800710798006e01900000
:10342800fe0190000e0890009e08900022fa070006
:1034380002402200439724001ffa07001007980053
:10344800210798000040eb00204f980002f82f0059
:10345800f37724001e009000ae009000e0f907000a
:103468000000e000010035000200370010c0b30082
:10347800204f9800a11929002e489000b2ff07009c
:103488001e009000ae0090003bff0700000f780080
:103498001e0078000080fa00000006001a00fa00fa
:1034a80040079800510798006207980000682900b3
:1034b80081c1240020079800310798004e00900031
:1034c800de009000e00f5000e08f58000600350045
:1034d8004e009000de00900038f90700300f980089
:1034e800410f9800170037004e009000de00900052
:1034f800610160006000b800030020000200700055
:10350800838070004e019000de0190008301d1009d
:103518000281d300020070008380700027f9070041
:10352800300f9800410f98003e099000ce09900096
:103538003e089000ce0890004cf90700300f980024
:10354800410f98002e019000be0190003e089000a7
:10355800ce089000a4f90700100f9800210f9800da
:103568006e009000cf80de0014f907007007980005
:10357800010f98006e0090000000e00007003d0079
:1035880002002000037824007e0090008e0890003e
:1035980036f9070070079800010f98007e01900027
:1035a8008e0990001e089000ae089000c2f907002e
:1035b8000240220043972400bff907002007980023
:1035c800310798002e009000be009000acfe070066
:1035d800008fbe001e00be000080fa00000006003a
:1035e8000a00fa00004f980010002000000f780031
:1035f8008000200010079800000420002007980091
:1036080000102000300798000040eb00104f980091
:103618000e489000e34f500002003e0010c0b30077
:10362800104f9800411e29001e48900046ff0700d1
:103638000e4890000080fb00000040006e007800fb
:103648000080fa00000006001600fa004007980003
:1036580051079800620798004e009000de00900025
:10366800e00f5000e08f5800060035004e00900033
:10367800de009000d1f80700100f9800210f980085
:10368800170037004e009000de00900061016000d6
:103698006000b80003002000020070008380700002
:1036a8004e019000de0190008301d1000281d30019
:1036b8000200700083807000c0f80700100f9800a7
:1036c800210f98001e099000ae0990001e08900076
:1036d800ae089000e5f80700100f9800210f980039
:1036e8001e089000ae089000200798003107980047
:1036f8006e009000cf80de00b0f8070070079800d9
:10370800010f98006e0090000000e00007003d00e7
:1037180002002000037824007e0090008e089000ac
:10372800d2f8070070079800010f98002e0190004a
:10373800be0190007e0090008e0890002af90700d4
:103748000268290083c124005bf9070002402200b7
:103758004397240024f907002007980031079800b0
:103768002e009000be00900045fe0700008fbe00ae
:103778001e00be000080fa00000006001600fa00d5
:103788004007980051079800620798004e00900083
:10379800de009000e00f5000e08f58000600350072
:1037a8004e009000de00900084f80700100f98008b
:1037b800210f9800170037004e009000de0090009f
:1037c800610160006000b800030020000200700082
:1037d800838070004e019000de0190008301d100cb
:1037e8000281d300020070008380700073f8070024
:1037f800100f9800210f98001e099000ae09900044
:103808001e089000ae08900098f80700100f980066
:10381800210f98001e089000ae089000200798001d
:10382800310798006e009000cf80de0063f8070033
:1038380070079800010f98006e0090000000e000eb
:1038480007003d0002002000037824007e0090005d
:103858008e08900085f8070070079800010f9800ff
:103868002e019000be0190007e0090008e0890000e
:10387800ddf807000268290083c124000ef907005b
:1038880082b22600e3e62400d7f807002007980054
:10389800310798002e009000be009000f8fd070048
:1038a800008fbe001e00be000080fa000000060067
:1038b8000c00fa00889fbe00200798003107980086
:1038c80042079800530798005e0090000000e0004f
:1038d80006003a00ae0090003e0090000100500043
:1038e80001002000008fbe001b003700ce009000b2
:1038f8002e009000008050000000e8000100200029
:10390800008fbe005e00900001002000610450009e
:10391800e08458004e009000010020006101400042
:10392800e08148000243b80003c0b90007027800ec
:10393800000242000990b9000002420084037800a6
:103948001e0f43005e974b003e00900001002000d0
:103958001e0f40005e9748001e00be004f04be00c8
:103968000080fa00000006000800fa00100798001e
:1039780021079800320798009e0090002e009000c2
:10398800808f500004003e009e0090002e009000a2
:10399800010f500006003700be0090001e00900086
:1039a80000805000000fe8002e0090001e0f40001d
:0c39b8001e0078000080fa0000000600ed
:020000040000fa
:1039c4000000fa000a00070000a82100610020009e
:1039d40000428800114288006000b800e04188007d
:1039e400f1418800090007000080fa000000060089
:1039f4000000fa006960a900cfe2a800c9e2a900aa
:103a04002d23a8000080fa00000006000000fa0040
:103a1400e0418000f141800061004000e080480006
:103a2400e0418800f1418800e2418000f3418000d8
:103a34000042800011428000800f5100818f5900a4
:103a440004003600050007006000b800e04188006b
:103a5400f14188000080fa00000006000200fa002c
:103a6400cdc2bf008040eb00014f78000004e000ad
:103a74000200350010c0b300004f78001e407800eb
:103a8400c700dd00cdc2bf000074a100014070007a
:103a9400cde2b7000080fa00000006003600f8000e
:103aa400809fbe00829fbe00849fbe00869fbe0092
:103ab4003400f80000c0b300a00188000000fa0040
:103ac400818420000007800080087800e035290008
:103ad400080007000080fa003400f9004f03be001c
:103ae4004f02be004f01be004f00be003600f90079
:103af400004006000200fa00000f78003042800007
:103b04000000e00003003a001e0078003042880004
:103b14000000fe000080fa00000006000600fa0023
:103b240010079800210798001e009000000f7800ed
:103b34001e009000ae0090004008de00010020004e
:103b440032e0b7001e0078001080ba0001002000a7
:103b5400c001dd00020020001e0078001000ba0041
:103b64000100200000007100818071000080fa00d3
:103b7400000006001200fa0000002000f10f2000ef
:103b8400e6ff070050079800610798002000200016
:103b9400f10f2000e1ff070030079800410798006b
:103ba40010c0b30040479800403729001007980020
:103bb40040372900000f78005e019000ee0190006c
:103bc400d0f1200001002000800f5100818f5900a6
:103bd40003003a00c037290010079800020037009c
:103be4000040eb00404798003e009000ce0090005b
:103bf40070079800010f98001000230001002000b6
:103c04007e0190008e099000800f5100818f590031
:103c14000800320020002300010020007e019000f3
:103c24008e099000800f5100818f590004003200ea
:103c340006003700b0382900000f7800050037006f
:103c4400e0382900000f7800020037000040eb0044
:103c54004047980010392900180107005e009000c1
:103c6400ee00900098010700e039290013010700d5
:103c74001e00900011010700103a29000f010700ef
:103c84003e009000ce0090008f010700e03929002b
:103c94000a0107001e00780008010700e03a290025
:103ca400060107004e4090000004e00002003a00c4
:103cb400103b2900010107000080fa000000060003
:103cc4000400fa0043c7bf000080fb004400de008c
:103cd40067406000004f78001e80fb0010079800ca
:103ce4001e009000e30f5000230032001e009000dd
:103cf400e30f50000a003c001e009000e10f50004a
:103d0400170032001e009000e10f500017003c0025
:103d14001e0090000000e0000e0032002500370075
:103d24001e009000e50f5000190032001e009000a4
:103d3400e50f5000130035001e009000e60f500000
:103d4400160032001e009000e70f500016003200eb
:103d54001800370020672900d80007001700370033
:103d6400f0672900d50007001400370050692900c6
:103d7400d200070011003700f06a2900cf000700c5
:103d84000e003700206d2900cc0007000b0037001f
:103d9400106e2900c900070008003700306f2900a1
:103da400c60007000500370030702900c300070073
:103db40002003700207129004eff07000080fa003e
:103dc400000006000200fa000040eb00004f7800fb
:103dd40040c7bf00684060000004e00003003200f8
:103de400b0722900b50007004067a90040c7bf00b2
:103df400644060000004e00003003200b074290055
:103e0400ae0007004047a900a0762900ab000700d8
:103e140040c7bf00614060000004e0000e003200b3
:103e240010c0b300004f780090772900a30007006a
:103e34004007a9004027a9000000eb003042880099
:103e44000000eb0020428800818420000000eb0089
:103e5400800878004a00370040c7bf000044b20021
:103e64000004e000060032004078290093000700b7
:103e740010c0b300004f780040c7a90040e7a90074
:103e840040c7bf00704060000004e0000d00320035
:103e940010c0b300004f7800507929008700070054
:103ea400204280000000e000020032002042800036
:103eb40082000700807a2900800007004087a9005b
:103ec40040e7a90040c7bf0001c8b300014060003b
:103ed4000004e0000500320010c0b300004f780079
:103ee400a07a29007500070040e7a90040c7bf0079
:103ef400624060000004e0000500320010c0b3001e
:103f0400004f7800b07b29006c0007004027a9000f
:103f140041c7bf0001c8b300014060000004e000d5
:103f24000500320010c0b300004f7800707c2900f7
:103f34006200070041e7a90041c7bf000044b20086
:103f44000004e0000500320010c0b300004f780008
:103f5400707d29005900070041c7a90041c7bf006f
:103f6400624060000004e0000500320010c0b300ad
:103f7400004f7800b07e2900500007004127a900b7
:103f84001e04e00002003a00408029004b000700b4
:103f9400304280000000e0001a0032004081290015
:103fa400460007003042800044000700808420005f
:103fb400100078000000e0000b003200408229006d
:103fc4003e000700404280004800de006f40600071
:103fd400a6000700f0822900380007004042800054
:103fe4000074a100a1000700108429003300070019
:103ff4000000eb0030428800818420000000eb00c8
:1040040080087800dbfe07002dff07000080fa001f
:10401400000006000000fa000080eb004016880053
:104024000080eb00001688000080eb006019880017
:104034000080eb00500388000080eb004003880000
:104044000080fa00000006000200fa00000f780069
:10405400090007005afe070000102e00010020008e
:104064008501070057ff07001e00780013000700b2
:104074000080fa00000006000000fa00de040700d9
:084084000080fa0000000600b4
:020000040000fa
:10408c000200fa00004f780050428000e10f50000f
:10409c0001003200030037001e407800e6030700e1
:1040ac00020037004009290090fe07000080fa004a
:1040bc00000006000200fa00000f78000400370030
:1040cc001e00780010407800edff07001e0fe8007e
:1040dc001e007800104078000004e000f8ff3a0061
:1040ec000080fa00000006000c00fa00200798007f
:1040fc0031079800024f98003e0090000000e0004d
:10410c0003003a000000eb00500798002200370033
:10411c000000eb00000f78000000eb00000f7800af
:10412c00150037000e4890000004e0000300320038
:10413c0037010700204798000200370024010700d0
:10414c00204798002e409000ea4f50000d0032009e
:10415c002e409000ed4f50000a003200ae4090000f
:10416c002e009000014878002e0090000000e8001e
:10417c00200798001e0fe8003e0090009e0f500094
:10418c00e8ff3e00ae0090000040eb008048780055
:10419c001e007800500798005e0090000080fa0026
:1041ac00000006000400fa00000f780011079800c8
:1041bc000041eb009e0090001e007800caff070033
:1041cc000080fa00000006000400fa00000f7800de
:1041dc001107980012c0b3009e0090001e007800da
:1041ec00c1ff07000080fa00000006000400fa007e
:1041fc00204798002e4090000080fb004400de0019
:10420c006f4f600090c0b3009e4f1000040036004a
:10421c001e4078007043b00099ff07000300370080
:10422c001e4078000043b00095ff07002e40900020
:10423c006f4f600090c0b3009e4f1000040036001a
:10424c001e4078007043b0008dff0700030037005c
:10425c001e4078000043b00089ff07000080fa0080
:10426c00000006000200fa00004f7800900c2900b4
:10427c0090ff07001e407800dcff07000080fa006a
:10428c00000006000400fa0010079800900c2900aa
:10429c0088ff07001e0090004800de00004f7800e9
:1042ac001e407800d1ff07001e009000004f7800e0
:1042bc001e407800cdff07000080fa0000000600c9
:1042cc000600fa001007980021079800900c2900ae
:1042dc0078ff07001e009000ae0090004808de003a
:1042ec0001002000004f78001e407800bfff07003f
:1042fc001e009000ae0090004008de00010020007f
:10430c00004f78001e407800b8ff07001e00900098
:10431c00ae0090004809dd004800de00000071008e
:10432c00c808de00004f78001e407800afff070081
:10433c001e009000004f78001e407800abff070075
:10434c000080fa00000006000a00fa00004f9800f6
:10435c000040eb00104798000e489000004f78008a
:10436c008e80e80000c3b300804878008e80e8009f
:10437c0000c3b300904098008e80e80000c3b300e7
:10438c00a04098008e80e8000040eb00b040980000
:10439c0070ccb3009e4f10000a0036000e80e8006f
:1043ac009040780080ccb30080c040000e80e800c4
:1043bc00014878009e40780080ccb30000c05000cb
:1043cc00004f780030c6b3009e4f10000a00360034
:1043dc000e80e8001040780042c6b30082404000d6
:1043ec000e80e800014878009e407800c0c9b300f8
:1043fc0000c04000004f78000040eb0010479800d0
:10440c00250037001e4090008080fb00808020003b
:10441c0000804000104078009e4f50001b003e0072
:10442c001e4090000080fb004200de0080407800bf
:10443c000180fb008001e8000180fb008000e800a7
:10444c000e80e80001004000104178001e409000f2
:10445c008080fb000080200000804000104078002d
:10446c00804041000e80e8000300400001487800c5
:10447c001e4090008080fb00808020000080400067
:10448c00904078001e407800014f50001e40900074
:10449c000040e800104798001e409000e74f500085
:1044ac00d8ff36000e80e8008040eb0031409800c9
:1044bc000e80e800fffe07000080fa0000000600f6
:1044cc000a00fa00400798000040eb0020479800d3
:1044dc004e009000000f7800e300470000c3b300cb
:1044ec0080487800e300470000c3b3009040980078
:1044fc00e300470000c3b300a0409800e30047006e
:10450c0000c3b300b0409800e300470000c3b30001
:10451c00c04098000040eb00204798002200370074
:10452c002e4090000080fb00800040004081200065
:10453c0000804000100078009e0f500017003e00d5
:10454c002e4090000080fb004200de008081fb00ca
:10455c008080fb006300470060c178002e40900013
:10456c000080fb00e3006000008120000080400020
:10457c0010407800804041006300470001f0790052
:10458c002e4090000080fb00800040004081200005
:10459c0000804000100078001e0f10002e4090008c
:1045ac000040e800204798002e409000f34f500048
:1045bc00dbff3600630047008040eb005140980061
:1045cc0063004700bbfe07000080fa0000000600f5
:1045dc000200fa0050428000e10f5000010032004e
:1045ec0004003700a60207000080fb00000f7800d3
:1045fc0004003700c00c29003cfd07000000eb0054
:10460c00000f78001e0078000080fa000000060001
:10461c000200fa00eeff0700004f78001e40780001
:10462c0097fe07001e80fb000080fa0000000600c9
:10463c000200fa0050428000e10f500001003200ed
:10464c0004003700880207000080fb00000f780090
:10465c00040037002010290024fd07000000eb00a7
:10466c00000f78001e0078000080fa0000000600a1
:10467c000400fa00008fbe00100020005042880099
:10468c001e00be008a0207000080fa00000006002f
:020000040000fa
:10469c000600fa00200798002e0090006101b80077
:1046ac0000c429000100200098f40700008fbe0010
:1046bc00b0ff2f00f1ff2f001e0f40005e97480047
:1046cc001e0078002010880007e2a8000080fa0085
:1046dc00000006000200fa00a00429002042880015
:1046ec0040c7bf000080fb004500de006140600059
:1046fc00004f780040a7a8000602a80006c2bf0021
:10470c00614060000004e000fcff3a009e4078002d
:10471c0061c06000614060004501dd000174200053
:10472c0091407800f0cdb30000c0600002407000f2
:10473c0040e7b7000000eb00204288000080fa0040
:10474c00000006000200fa005005290020428800f3
:10475c0040c7bf000080fb004500de0061406000e8
:10476c00004f780040a7a8000622a80006c2bf0090
:10477c00624060000004e000fcff3a009e407800bc
:10478c0061c06000614060004501dd0001742000e3
:10479c0091407800f0cdb30000c060000240700082
:1047ac0040e7b7000000eb00204288000080fa00d0
:1047bc00000006000200fa001006290020428800c2
:1047cc0040c7bf000080fb004500de006140600078
:1047dc00004f780040a7a8000642a80006c2bf0000
:1047ec00644060000004e000fcff3a009e4078004a
:1047fc0061c06000614060004501dd000174200073
:10480c0091407800f0cdb30000c060000240700011
:10481c0040e7b7000000eb00204288000080fa005f
:10482c00000006000400fa0020479800b00629009a
:10483c002042880040c7bf000080fb004500de001e
:10484c0061406000004f780040a7a8002e40900007
:10485c000080fb001010880009c2bf000044b200a9
:10486c000004e000fcff3a009e40780061c060004c
:10487c00614060004501dd0001742000914078002a
:10488c00f0cdb30000c060000240700040e7b700fc
:10489c000000eb002042880091202000914078001d
:1048ac0000c8b30000c060000004e0000200320049
:1048bc00400729008dfc07000080fa00000006006c
:1048cc000400fa0020479800b00629002042880016
:1048dc0040c7bf000080fb004500de006140600067
:1048ec00004f780040a7a8002e4090000080fb00ed
:1048fc001010880009c2bf000044b2000004e000a0
:10490c00fcff3a009e40780061c06000614060008e
:10491c004501dd000174200091407800f0cdb3001a
:10492c0000c060000240700040e7b7000000eb00e0
:10493c002042880009c2bf000080fb004700de0057
:10494c000080fb000080fa00000006000400fa0062
:10495c0020479800b00829002042880040c7bf00bb
:10496c000080fb004500de006140600010479800ad
:10497c0040a7a800301080007f0060000000e0001d
:10498c00fcff3a000662a80008c2bf00624060004b
:10499c000004e000fcff32000060fe00001080000c
:1049ac00004f7800301080007f0060000000e000b5
:1049bc00fcff3a002e4090006140600061406000b6
:1049cc004501dd006120200091407800f0cdb3005e
:1049dc0000c060000240700006e2b7000682a8002a
:1049ec0006c2bf00704060000004e000fcff3a000b
:1049fc001e40900061406000614060004501dd0098
:104a0c000174200091407800f0cdb30000c060002c
:104a1c000240700040e7b7000000eb002042880025
:104a2c001e80fb000080fa00000006000200fa0065
:104a3c00004f78001147980026ff0700e0cfb30025
:104a4c001e40600077ff07001e40900075ff0700b6
:104a5c0058ff07000080fa00000006000400fa006e
:104a6c00004f7800114798002247980019ff070063
:104a7c00e0cfb3001e4060006aff07001e409000ac
:104a8c0068ff07002e40900066ff070049ff0700f3
:104a9c000080fa00000006000800fa002047980089
:104aac0021079800320798000aff0700e1cfb300f6
:104abc002e40900000c060005aff07000000eb0081
:104acc00000f7800070037002e009000104078008f
:104adc0054ff07002e0090000000e800200798000b
:104aec001e0fe8003e0090009e0f1000f6ff3900ec
:104afc0030ff07000080fa00000006000400fa00f6
:104b0c00004f780011079800f2fe07001e40780055
:104b1c000004a00043ff070010c0b3008bff070088
:104b2c00804078001e0090000148780021ff0700ab
:104b3c000080fa00000006000600fa00004f780022
:104b4c001107980022079800e2fe07001e4078002b
:104b5c000004a00033ff07000040eb007bff0700c0
:104b6c00804078001e0090000148780010c0b3000f
:104b7c0076ff0700804078002e00900001487800f6
:104b8c000cff07000080fa00000006000800fa0085
:104b9c00204798002107980032079800cdfe0700a7
:104bac002e4090000004a0001eff07000000eb0048
:104bbc00000f7800130037003e0090000000e90061
:104bcc009e0f5000060032000040eb005fff070014
:104bdc00804078002e0090000148780005003700d6
:104bec0010c0b30059ff0700804078002e009000e1
:104bfc00014878002e0090000000e8002007980083
:104c0c001e0fe8003e0090009e0f1000eaff3900d6
:0c4c1c00e8fe07000080fa00000006001f
:020000040000fa
:104c28000200fa0020ff28002042880040c7bf0089
:104c38000080fb004500de0061406000004f780006
:104c480040a7a8002023a8000f0007009e40780076
:104c580061c06000614060004501dd000174200012
:104c680091407800f0cdb30000c0600002407000b1
:104c780040e7b7000000eb002042880000188000e1
:104c88000080fa00000006000000fa00010037006a
:104c98005dfb070020c3bf00614060000004e00026
:104ca800fbff32000080fa00000006000400fa0052
:104cb800000f780021479800324798002e40900056
:104cc800ff4f500002003600f0c1b30020479800a3
:104cd80021e3a900000e2000001988003e40900042
:104ce8000004e000020032002143a8000100370060
:104cf8002143a9002e4090000080fb004800dd0001
:104d080080007800000028000080400020198800fa
:104d180000002800101988001e007800401988003b
:104d280021e3a8000080fa00000006000800fa004d
:104d38002007980061479800724798000040eb00f0
:104d48002047980010002000000f78000040eb007a
:104d5800304798000d0037002e0090001e006000bc
:104d68000000e000030032002e4090000040e80000
:104d7800204798001e00780000004000000f7800cf
:104d88003e4090000040e800304798003e409000c8
:104d9800ef4f5000f0ff36006e409000ff4f50007c
:104da80002003600f0c1b3006047980021e3a90073
:104db800400e2000001988007e4090000004e000aa
:104dc800020032002143a800010037002143a90056
:104dd8006e4090000080fb004800dd0080007800f5
:104de8000000280000804000201988002e40900014
:104df8000080fb000000e9004200dd008000780030
:104e08000040280000804000101988000000eb00d6
:104e1800401988002e00900080198800a10a2000ff
:104e28009140780000c7b30000c07000aae0b70046
:104e380085a0a90095a0a80021e3a8000080fa0099
:104e4800000006000800fa00200798006147980053
:104e5800724798000040eb0020479800100020009f
:104e6800000f78000040eb00304798000d00370035
:104e78002e0090001e0060000000e00003003200d9
:104e88002e4090000040e800204798001e0078005f
:104e980000004000000f78003e4090000040e8000d
:104ea800304798003e409000ef4f5000f0ff36002a
:104eb8006e409000ff4f500002003600f0c1b30072
:104ec8006047980021e3a900400e200000198800df
:104ed8007e4090000004e000020032002143a80058
:104ee800010037002143a9006e4090000080fb00bc
:104ef8004800dd00800078000000280000804000a5
:104f0800201988002e4090000080fb000000e90076
:104f18004200dd008000780020402800008040002a
:104f2800101988000000eb00401988002e0090003e
:104f380080198800a10a20009140780000c7b300ba
:104f480000c07000aae0b70085a0a90095a0a8003d
:104f580021e3a8000080fa00000006000600fa001d
:104f6800004f7800110798002207980021e3a90054
:104f78008004200000198800ae009000f00f200087
:104f8800008060002019880020302800101988004f
:104f98001e80fb007f006000401988001e00900002
:104fa800301988000000eb0080198800a10a200051
:104fb8009140780000c7b30000c07000aae0b700b5
:104fc80085a0a90095a0a80021e3a8000080fa0008
:044fd80000000600cf
:020000040000fa
:104fdc000200fa0022c2bf00684060000004e0003a
:104fec000400320030118000004f7800c0222900ec
:104ffc00befa070022c2bf00644060000004e0005b
:10500c000400320030118000004f78000024290089
:10501c00b6fa070022c2bf00624060000004e00044
:10502c00030032002222a90050252900affa070004
:10503c000080fa00000006000200fa00004f780021
:10504c00010037006ffa070023c2bf006240600006
:10505c000004e000fbff3a001e80fb0020118800da
:10506c000080fa00000006000000fa0022c2bf0017
:10507c00614060000080fb000080fa000000060028
:10508c000000fa00010037005efa070022c2bf00e0
:10509c00614060000004e000fbff3200ccff070021
:1050ac00301180000080fb000080fa000000060038
:1050bc000400fa00008fbe00416a20009140780085
:1050cc0000ceb30000c06000a040b300a4e6b7005f
:1050dc00b16c20009140780000ceb30000c060009d
:1050ec003040b300cbe6b7001e00be0049000700fd
:1050fc000040eb002f00070010c0b3000c000700ad
:10510c00020007000080fa00000006000000fa0010
:10511c0021c2bf00c1cfb3000140600021e2b70043
:10512c0021e2a8002342a8000080fa00000006003b
:10513c000200fa00004f78000040eb001047980086
:10514c0020c0b3009e4f100002003e0010c0b30000
:10515c0010479800a12629001e4090000c00070063
:10516c001e4078000040e900614060006141600031
:10517c000122200091407800e0cfb30000c0600015
:10518c000240700020e2b7000080fa000000060028
:10519c000400fa00004f7800110798001e04e0008c
:1051ac0002003a001e00900050fa07000080fa003e
:1051bc00000006000200fa00004f78000040eb00ef
:1051cc001047980031c0b3009ecf100002003e0083
:1051dc0010c0b30010479800712b29001e4090009e
:1051ec00ebff07009e40780063c0600063406000e6
:1051fc0000414000012220009140780090cfb30084
:10520c0000c060000240700020e2b7000080fa008d
:10521c00000006000a00fa002007980031079800e9
:10522c002e019000be019000005a22006102200065
:10523c00b6f107000081eb008081eb00021f4000fb
:10524c00039748008041eb00034f9800f0ff2f00bc
:10525c0001002000be0f1000ae8f180002003e00af
:10526c0010c0b300004f9800813129000e48900007
:10527c00c7ff07002062a9001e00780040118800bb
:08528c000080fa00000006009a
:020000040000fa
:105294000400fa00204798000040eb0030479800d3
:1052a4002e409000e74f500002003e0013c0b300b0
:1052b40033479800010029003e4090003400070065
:1052c400ff3ffc00103a8000000f78002e40900051
:1052d400674060009e0078000080fb00670060006b
:1052e4004801dd00f08f2f00808060008280700014
:1052f400010f78001e0078000000a000000f780065
:105304000e0078000000e800104078000081fb00e7
:1053140081072000a009200033742000814978000f
:1053240080497800824978000e00780010407800a7
:105334000081fb006104200070052000237420001c
:105344008149780080497800824978000000fc0097
:1053540042c7bf00614060000004e000fcff3a0067
:105364002e409000e14f5000030032002e40900088
:10537400e34f500004003a0042c7bf000042b200ad
:105384000004e000fcff32000080fa000000060088
:105394000400fa00004f7800110798001e04e00092
:1053a40002003a001e009000d2f907000080fa00c3
:1053b400000006000000fa000080fa000000060069
:1053c4000000fa0010c0b300b1ff07000080fa002b
:1053d400000006000000fa0010c0b300acff070094
:1053e40048c7bf0001ccb3000140600048e7b700e4
:1053f4000080fa00000006000000fa000040eb0004
:10540400a3ff0700817420009140780000ccb30012
:1054140000c06000d1c2b3000140700048e7b7008b
:10542400417420009140780000ceb30000c06000b9
:105434006040b30044e7b700313a800000e02f0039
:1054440000806000910b200001007000303a880059
:1054540044c7bf00f043b20044e7b70010c0b30034
:105464008bff07000080fa00000006000000fa002d
:105474000040eb0086ff0700417420009140780053
:1054840000ceb30000c060000024a00044e7b700d1
:10549400313a800000e02f00008060000108200005
:1054a40001007000303a880044c7bf00f043b200e6
:1054b40044e7b70010c0b30075ff07000080fa008e
:1054c400000006000000fa000040eb0070ff070037
:1054d400417420009140780000ceb30000c0600009
:1054e40044e7b700313a800000e02f0000806000fc
:1054f4006102200001007000303a880044c7bf00f8
:10550400f043b20044e7b70010c0b30060ff0700e7
:085514000080fa00000006000f
:020000040000fa
:10551c00000800003c00000002000000050302002f
:10552c0001050300020132001e140a0005030200eb
:10553c000105030002015000c3307500204e10001d
:10554c0027881300b80bd00007e80300f4012c00e7
:10555c0001c8000064003200001e000014000a00a4
:10556c000005000003000200000100003c080000e0
:10557c0008000000000000004a08000002000000c3
:0c558c0002000000010000000000000010
:020000040000fa
:105598000000fa0040c2bf000044b2000004e0006e
:1055a8000300320040c2a9008013290050f9070007
:1055b8000080fa00000006000200fa00000f7800e0
:1055c800f3ff07008540a9001e00780040128800fc
:1055d800010037000cf9070085c0bf006440600077
:1055e8000004e000fbff3200401280000080fa0057
:0455f80000000600a9
:020000040000fa
:1055fc000200fa000e00070084fa0700eef807001c
:10560c0000102e000100200019fc0700ebf9070028
:10561c0000fc2800a7fa0700edfb0700004f7800fc
:10562c001e4fe8001e40780095fa0700faff37007d
:10563c000000fa006eff07000080fa000000060070
:00000001FF
