:020000040000fa
:080000000002040000000000f2
:020000040000fa
:100400006f6621000eff26000e018800000000002c
:100410000c00070060962000010020000f0007007c
:10042000000020000000e000020032000000020096
:1004300000000000ec020200000000000040da00b2
:100440000000fe00000020000000e000020032007a
:10045000000020009001880000000600a102880032
:10046000800078000000eb001a003700e2804000b6
:1004700054a0b4009101ba00e280400054a0b4003e
:100480009102ba00e280400054a0b4000002eb00e8
:10049000472bde00f507b200a6018800602ce100c2
:1004a00008003a000049eb000201e80002003900b0
:1004b0003420ec0002f0a0008301e900f9ff3e00c7
:1004c000040037006128e100010032000082eb00e7
:1004d000040007001101ba000200e000e3ff3a0047
:1004e0000000060004d0a300e20f49001c00390000
:1004f000810278003549ba000201e80002003900a3
:100500003420ec0002f0a0008301e9000f0032006b
:100510002549ba000201e800020039003420ec004d
:1005200002f0a0008301e900080032000400e000ae
:100530000600320015c9ba000201e80002003900c5
:100540003420ec0002f0a0008301e9008180e80083
:1005500054a0b4000300e000e2ff3a0000000600ef
:100560009102ba00055978008301e900f7ff3200d3
:10057000c82ade00055978008301e900f3ff320044
:100580000400e000f1ff320011d9ba00eeff37009d
:100590000040da000000fe006022b80006022000e1
:1005a0000000d0008180d2000482d2008582d20077
:1005b0000000a0000202520083825a0003003100b2
:1005c0000202420083824a000000a1000603e90003
:0805d000f3ff3a0000000600f1
:020000040000fa
:020000040001f9
:045fe000cfff0000ef
:020000040000fa
:020000040001f9
:045fe400efff0000cb
:020000040000fa
:020000040001f9
:045fe80079ff00003d
:020000040000fa
:020000040001f9
:045fec005bff000057
:020000040000fa
:020000040001f9
:045ff00078ff000036
:020000040000fa
:020000040001f9
:045ff400cfff0000db
:020000040000fa
:1000080002100000061000000a1000000e10000088
:1000180012100000161000001a1000001e10000038
:1000280022100000261000002a1000002e100000e8
:1000380032100000361000003a1000003e10000098
:1000480042100000461000004a1000004e10000048
:1000580052100000561000005a1000005e100000f8
:1000680062100000661000006a1000006e100000a8
:1000780072100000761000007a1000007e10000058
:1000880082100000861000008a1000008e10000008
:1000980092100000961000009a1000009e100000b8
:1000a800a2100000a6100000aa100000ae10000068
:1000b800b2100000b6100000ba100000be10000018
:1000c800c2100000c6100000ca100000ce100000c8
:1000d800d2100000d6100000da100000de10000078
:1000e800e2100000e6100000ea100000ee10000028
:1000f800f2100000f6100000fa100000fe100000d8
:1001080002110000061100000a1100000e11000083
:1001180012110000161100001a1100001e11000033
:1001280022110000261100002a1100002e110000e3
:1001380032110000361100003a1100003e11000093
:1001480042110000461100004a1100004e11000043
:1001580052110000561100005a1100005e110000f3
:1001680062110000661100006a1100006e110000a3
:1001780072110000761100007a1100007e11000053
:1001880082110000861100008a1100008e11000003
:1001980092110000961100009a1100009e110000b3
:1001a800a2110000a6110000aa110000ae11000063
:1001b800b2110000b6110000ba110000be11000013
:1001c800c2110000c6110000ca110000ce110000c3
:1001d800d2110000d6110000da110000de11000073
:1001e800e2110000e6110000ea110000ee11000023
:1001f800f2110000f6110000fa110000fe110000d3
:1002080002120000061200000a1200000e1200007e
:1002180012120000161200001a1200001e1200002e
:1002280022120000261200002a1200002e120000de
:1002380032120000361200003a1200003e1200008e
:1002480042120000461200004a1200004e1200003e
:1002580052120000561200005a1200005e120000ee
:1002680062120000661200006a1200006e1200009e
:0c02780072120000761200007a120000e2
:020000040000fa
:1005d8002800fa008000eb000011200001087800d4
:1005e8008000eb0020112000010878008000eb005b
:1005f80000222000010878007d01070040a7a9001b
:100608000000210001002000200798003107980011
:10061800ae0090003e0090000403070040079800d9
:100628005107980000742000104078000044b20080
:100638000004e00001003200040307000e489000a7
:100648000004e0000b003200007420001040780025
:10065800614060000004e00007003a0000742000d8
:100668009040780000c8b30000c060000004e000bb
:1006780001003a00f50207001061a8000108a9006e
:100688002108a9004e009000de009000f20f200023
:100698000300200000027800810278000200780040
:1006a8008300780000016200018062006102b800e6
:1006b80004179800151798000e1090009e109000cf
:1006c800c000dd00000020000017980011179800f6
:1006d8000e1090009e1090006112b8000417980048
:1006e800151798000e1190009e11900002007000de
:1006f80083807000f20f200003002000820f50005a
:10070800838f5800170032000e4890000002fb004b
:10071800cfa2de0084007800007028000009b8002d
:10072800303920008023b80003007800060040001c
:1007380001702800812ab800040040008001780078
:100748004207980053079800de009000e010200050
:1007580001087800ce009000c01020000108780041
:1007680011e1a800ca000700000037006c0047002c
:10077800230107004e4890000000fb00700f98000e
:10078800fe099000e78f51009f0032007e0a90001a
:10079800e70f52000a003c00fe0a9000e28f520068
:1007a800140032007e089000e30f5000230032004e
:1007b800fe0890000100e000b0003200b1003700f0
:1007c8007e099000e90f51006d003200fe0990008b
:1007d800e98f5100a70035007e0a9000f10f520002
:1007e80080003200fe0a9000f38f5200840032002d
:1007f800a40037006e004700010107006e004700a3
:100808000000e800fe0007006e0047000080e800d6
:10081800fb0007000040eb00105798007e01900095
:100828008e099000000021001d01070001602000d2
:100838000000210040010700ccff3700720047008c
:10084800ef000700720047000000e800ec00070016
:10085800720047000080e800e90007000040eb0054
:10086800505798000000eb00100798000800370068
:100878001e009000800078000000210000804000e9
:10088800df0007001e0090000000e8001007980035
:100898009e009000f05f2000808f5000f4ff34002d
:1008a8001e089000ae089000f27f20000300200090
:1008b8000002780081027800020078008300780046
:1008c80000016200018062006102b80024179800ec
:1008d800351798002e109000be109000c000dd0063
:1008e8000000200020179800311798002e10900063
:1008f800be1090006112b8002417980035179800b0
:100908002e119000be1190000200700083807000cc
:10091800e00f5000e08f58000b003a001e099000cd
:10092800ae099000f0bf200001002000800f5100a8
:10093800818f5900040036009e0890002e08900010
:10094800320024004c0207001e099000ae099000f6
:10095800f0bf200001002000800f5100818f590056
:10096800040036001e099000ae0990000000210026
:100978000f01070010c0b300010107007bff37001b
:1009880000002000f10f2000300f9800410f980060
:10099800be0890004e08900024020700500f9800ef
:1009a800610f98007a00470041002000e20007002c
:1009b80020002000f10f2000300f9800410f980010
:1009c800be0890004e08900018020700500f9800cb
:1009d800610f98007a00470041002000d600070008
:1009e80062ff370030c0b300e50007000040eb00ad
:1009f800e300070010c0b300e10007005bff370009
:100a08001702070059ff37000000eb00000f7800bd
:100a1800140037001e0078008000780000002100d4
:100a2800008040001e0fe800750007001e007800d7
:100a38008000780000002100008040001e0fe800c0
:100a48006f0007001e007800800078000000210079
:100a5800008040001e0fe8006900070010c0b300c6
:100a6800c7000700300220009e0f1000e9ff340085
:100a78003eff3700fa0107003cff3700f30107008b
:100a88003aff37000040eb00bd00070037ff370092
:100a98000000fa0051000700406c200090407800e8
:100aa80000c8b30000c06000a1c2b30001407000dc
:100ab800416c2000804878009068200090407800c1
:100ac80000ccb30000c060000004a00091682000c2
:100ad8008048780000102e00010020001500070053
:100ae800002220009040780090cfb30080c06000c2
:100af80000222000014878002002a9000200070017
:100b08000080fa00000006000000fa001022200011
:100b180090407800c0cfb30080c060001022200051
:100b28000148780021e2a8002342a8000080fa00ca
:100b3800000006000800fa00200798003107980016
:100b48002e019000be01900000702800313920006d
:100b58008ffe0700008fbe001e0078006f01600046
:100b68006000b8000300200002007000838070005d
:100b78007200200003002000820f5000838f58006d
:100b8800070036001e00be004c09dd004400de00f0
:100b980000007100c408de00008fbe0009003700a5
:100ba8001e00be00cc09dd004400de00008071009c
:100bb800c408de000081eb008081eb00021f4000ca
:100bc800039748009e0078008022200001087800e2
:100bd8002062a9000080fa00000006000000fa0068
:100be80021e2a9002342a9000080fa0000000600c3
:100bf8000000fa000f0107000080fa00000006005c
:100c08000400fa00100798001080200010407800b7
:100c1800614060000004e000040032009e00900083
:100c28000040eb00804878001b003700202220009d
:100c380010407800644060000004e00004003200c6
:100c48006022200010007800004f78000000fe00ad
:100c58002022200010407800624060000004e0007c
:100c6800020032002222a9000000fe0020222000fb
:100c780010407800614060000004e000e2ff3200ac
:100c880011e1a9006022200010007800804078005f
:100c98001e009000014878000080fa00000006005d
:100ca8000c00fa0030079800420798005307980094
:100cb8000000eb00000f78001a003700ce0090000b
:100cc8005e0090005901070010079800210798005e
:100cd800ce4090003e009000014878003e00900011
:100ce8008000e8003e409000804878003e00900078
:100cf8008080e8002e409000804878003e009000f8
:100d080063004000300798004e009000de0090001d
:100d180062004000e08048004007980051079800b2
:100d28001e0fe800f01f20009e0f1000e3ff3400a4
:100d38000080fa00000006000600fa00100798007c
:100d4800210798000000eb00000f7800070037002b
:100d58001e007800800078001e009000008040008f
:100d680010407800060007001e0fe8002e009000d3
:100d78009e0f1000f6ff35000080fa000000060004
:100d88000200fa00004f780030222000104078005e
:100d9800624060000004e000fbff3a009e00fb0098
:100da80040222000010878000080fa0000000600b8
:100db8001a00fa00881f7800200f9800320f980058
:100dc800430f98000000eb00100798000000eb00ac
:100dd800000f7800460037001e0078008000780079
:100de8002e0890000080400010407800404798008e
:100df8009e0078002e089000008040000000e80067
:100e080010407800504798009e0078002e08900007
:100e1800008040000080e80010407800604798009b
:100e28000040eb00704798001e007800630f4000f8
:100e38001e007800800078002e0890000080400096
:100e480010407800004f98009e0078002e0890000f
:100e5800008040000000e80010407800104f980023
:100e68009e0078002e089000008040000080e80076
:100e780010407800204f98000040eb00304f980059
:100e88001e007800630f40004e009000de009000c6
:100e98002e0190003e039000be0b90004e0c900077
:100ea800800278000102780082017800060178004b
:100eb8008700780008007800cc000700be08900082
:100ec8004e08900012002400a40007003e0890007d
:100ed800ce08900064004000e0804800300f980081
:100ee800410f98001e0090000080e800100798004d
:100ef8009e009000f01f2000808f5000b6ff340045
:100f08004f0478000080fa00000006000000fa0094
:100f18000080fa00000006000400fa00204798004c
:100f2800ff3ffc0020742000100f78002e40900036
:100f3800674060000080fb0067006000c800dd00bb
:100f4800f08f2f001e0f60001e8f70001e00a00083
:100f58000e0078000000e800104078000081fb00d7
:100f680081072000a00920003374200081497800ff
:100f780080497800824978000e0078001040780097
:100f88000081fb006104200070052000237420000c
:100f98008149780080497800824978000000fc0087
:100fa80001003700d9ff07002074200010407800a6
:100fb800614060000004e000faff3a002e40900013
:100fc800e14f5000050032002e409000e34f5000e2
:100fd80009003a0001003700ccff07002074200008
:100fe800104078000042b2000004e000faff32002e
:100ff80001003700c5ff070030742000104078005a
:101008000080fb004400de00674060008080fb0039
:101018002e4090000080fb00808f5000f5ff3a00c2
:101028000080fa00000006000000fa000080fa00c4
:10103800000006000000fa000040eb00b6ff0700c1
:10104800807420009040780000ccb30080c060001d
:101058008074200001487800407420009040780097
:1010680000ceb30080c060004074200001487800c2
:10107800607420009000780000e02f00008060007d
:10108800f1032000010070006174200080087800de
:101098004074200010407800f2c3b3008240600022
:1010a800407420000148780010c0b3009aff070080
:1010b8000080fa00000006000000fa000040eb0083
:1010c80095ff0700407420009040780000ceb300e0
:1010d80080c06000407420000148780060742000df
:1010e8009000780000e02f0000806000610220007e
:1010f80001007000617420008008780040742000ae
:1011080010407800f2c3b3008240600040742000b1
:101118000148780030c0b3007fff07000080fa0064
:10112800000006000200fa00000f7800403988002d
:101138005005200070398800a00a20007039880006
:1011480029e7a800000000000000000029e7af0020
:10115800feff37000080fa00000006000600fa00d3
:10116800000f78001107980022079800603988005e
:1011780051398800423988000600fc0050052000db
:1011880070398800a00a20007039880029e7a80073
:10119800000000000000000029e7af00feff370054
:1011a8000080fa00000006000400fa00000f780032
:1011b80011079800a0028800810078000080fa00da
:1011c800000006000800fa00000f780011079800d8
:1011d8002207980033079800a00288008308bb0004
:1011e8008288bb000080fa00000006000c00fa00ac
:1011f800000f78001107980022079800330798001d
:101208004407980055079800a00f2000a002880006
:10121800010020008308bb008298bb008508bb0042
:101228008498bb000080fa00000006000400fa0061
:10123800000f780011079800a00288001100ba007a
:101248009180ba000080fa00000006000000fa0051
:1012580000130400000000000080fa0000000600ef
:101268000000fa004007a800001304000000000076
:101278000080fa00000006000600fa00000f78005f
:1012880011079800220798004239880060398800c1
:10129800513988000600fc0050052000703988008c
:1012a800a00a20007039880029e7a8000000000083
:1012b8000000000029e7af00feff37000080fa00b9
:0412c800000006001c
:020000040000fa
:0412cc00000000001e
:00000001FF
