:020000040000fa
:080000000002040000000000f2
:020000040000fa
:100400006fe620000e7f22000e0188000000000031
:100410000c000700008820000100200011000700e8
:10042000000020000000e000020032000000020096
:1004300000000000b4020200000000000040da00ea
:100440000000fe004440a900000020000000e00081
:100450000300320000002000a00188004440a800f2
:100460000000060091018800800078000000eb0089
:1004700015003700e280400032a0b4009101ba00bc
:10048000e280400032a0b4009102ba00e280400055
:1004900032a0b4000002eb00472bde00f507b200eb
:1004a000602ce10004003a000059eb008301e900f0
:1004b000fdff3e00040037006128e100010032002a
:1004c0000082eb00040007001101ba000200e00006
:1004d000e8ff3a00000006003159ba008301e90044
:1004e0000c0032002159ba008301e90008003200f3
:1004f0000400e00003003a00e280400032a0b400b3
:10050000f5ff370011d9ba008301e900faff3a007c
:100510008100e800e180400032a0b4000000060045
:100520000040da000000fe006022b8000602200051
:100530000000d0008180d2000482d2008582d200e7
:100540000000a0000202520083825a000300310022
:100550000202420083824a000000a1000603e90073
:08056000f3ff3a000000060061
:020000040000fa
:020000040001f9
:0457f8005f780000d6
:020000040000fa
:020000040001f9
:0457fc00393e000032
:020000040000fa
:10000800020c0000060c00000a0c00000e0c000098
:10001800120c0000160c00001a0c00001e0c000048
:10002800220c0000260c00002a0c00002e0c0000f8
:10003800320c0000360c00003a0c00003e0c0000a8
:10004800420c0000460c00004a0c00004e0c000058
:10005800520c0000560c00005a0c00005e0c000008
:10006800620c0000660c00006a0c00006e0c0000b8
:10007800720c0000760c00007a0c00007e0c000068
:10008800820c0000860c00008a0c00008e0c000018
:10009800920c0000960c00009a0c00009e0c0000c8
:1000a800a20c0000a60c0000aa0c0000ae0c000078
:1000b800b20c0000b60c0000ba0c0000be0c000028
:1000c800c20c0000c60c0000ca0c0000ce0c0000d8
:1000d800d20c0000d60c0000da0c0000de0c000088
:1000e800e20c0000e60c0000ea0c0000ee0c000038
:1000f800f20c0000f60c0000fa0c0000fe0c0000e8
:10010800020d0000060d00000a0d00000e0d000093
:10011800120d0000160d00001a0d00001e0d000043
:10012800220d0000260d00002a0d00002e0d0000f3
:10013800320d0000360d00003a0d00003e0d0000a3
:10014800420d0000460d00004a0d00004e0d000053
:10015800520d0000560d00005a0d00005e0d000003
:10016800620d0000660d00006a0d00006e0d0000b3
:10017800720d0000760d00007a0d00007e0d000063
:10018800820d0000860d00008a0d00008e0d000013
:10019800920d0000960d00009a0d00009e0d0000c3
:1001a800a20d0000a60d0000aa0d0000ae0d000073
:1001b800b20d0000b60d0000ba0d0000be0d000023
:1001c800c20d0000c60d0000ca0d0000ce0d0000d3
:1001d800d20d0000d60d0000da0d0000de0d000083
:1001e800e20d0000e60d0000ea0d0000ee0d000033
:0801f800f20d0000f60d0000fd
:020000040000fa
:10020800020c0000060c00000a0c00000e0c000096
:10021800120c0000160c00001a0c00001e0c000046
:10022800220c0000260c00002a0c00002e0c0000f6
:10023800320c0000360c00003a0c00003e0c0000a6
:10024800420c0000460c00004a0c00004e0c000056
:10025800520c0000560c00005a0c00005e0c000006
:10026800620c0000660c00006a0c00006e0c0000b6
:10027800720c0000760c00007a0c00007e0c000066
:10028800820c0000860c00008a0c00008e0c000016
:10029800920c0000960c00009a0c00009e0c0000c6
:1002a800a20c0000a60c0000aa0c0000ae0c000076
:1002b800b20c0000b60c0000ba0c0000be0c000026
:1002c800c20c0000c60c0000ca0c0000ce0c0000d6
:1002d800d20c0000d60c0000da0c0000de0c000086
:1002e800e20c0000e60c0000ea0c0000ee0c000036
:1002f800f20c0000f60c0000fa0c0000fe0c0000e6
:10030800020d0000060d00000a0d00000e0d000091
:10031800120d0000160d00001a0d00001e0d000041
:10032800220d0000260d00002a0d00002e0d0000f1
:10033800320d0000360d00003a0d00003e0d0000a1
:10034800420d0000460d00004a0d00004e0d000051
:10035800520d0000560d00005a0d00005e0d000001
:10036800620d0000660d00006a0d00006e0d0000b1
:10037800720d0000760d00007a0d00007e0d000061
:10038800820d0000860d00008a0d00008e0d000011
:10039800920d0000960d00009a0d00009e0d0000c1
:1003a800a20d0000a60d0000aa0d0000ae0d000071
:1003b800b20d0000b60d0000ba0d0000be0d000021
:1003c800c20d0000c60d0000ca0d0000ce0d0000d1
:1003d800d20d0000d60d0000da0d0000de0d000081
:1003e800e20d0000e60d0000ea0d0000ee0d000031
:0803f800f20d0000f60d0000fb
:020000040000fa
:100568002800fa000000eb00800888000000eb007b
:10057800900888000000eb00001188006401070063
:1005880040a7a90000c02000010020002007980013
:1005980031079800ae0090003e009000af020700bf
:1005a800400798005107980040c7bf000044b200b8
:1005b8000004e00001003200b00207000e4890007d
:1005c8000004e0000900320040c7bf00614060003d
:1005d8000004e00006003a0040c7bf0001c8b300ad
:1005e800014060000004e00001003a00a302070097
:1005f8001061a8008500a9009500a9004e00900090
:10060800de009000f20f20000300200000027800b6
:1006180081027800020078008300780000016200ff
:10062800018062006102b80004179800151798004d
:100638000e1090009e109000c000dd000000200009
:1006480000179800111798000e1090009e10900047
:100658006112b80004179800151798000e11900041
:100668009e1190000200700083807000f20f20003d
:1006780003002000820f5000838f580015003200bd
:100688000e4890000003fb00cfb3de008600780020
:1006980000402200000ab800400f200000b0b90056
:1006a80005017800000141000040220000b8b900af
:1006b800000141008202780044079800550798001d
:1006c8005e009000700888004e0090006008880066
:1006d80011e1a800ca000700000037006c004700bd
:1006e8000f0107004e4890000000fb00700f9800b3
:1006f800fe099000e78f51009f0032007e0a9000ab
:10070800e70f52000a003c00fe0a9000e28f5200f8
:10071800140032007e089000e30f500023003200de
:10072800fe0890000100e000b0003200b100370080
:100738007e099000e90f51006d003200fe0990001b
:10074800e98f5100a70035007e0a9000f10f520092
:1007580080003200fe0a9000f38f520084003200bd
:10076800a40037006e004700ed0007006e00470048
:100778000000e800ea0007006e0047000080e8007b
:10078800e70007000040eb00105798007e0190003a
:100798008e099000008020000301070001602000fe
:1007a8000080200026010700ccff370072004700b8
:1007b800db000700720047000000e800d8000700cf
:1007c800720047000080e800d50007000040eb00f9
:1007d800505798000000eb001007980008003700f9
:1007e8001e009000800078000080200000804000fb
:1007f800cb0007001e0090000000e80010079800da
:100808009e009000f05f2000808f5000f4ff3400bd
:100818001e089000ae089000f23f20000300200060
:1008280000027800810278000200780083007800d6
:1008380000016200018062006102b800241798007c
:10084800351798002e109000be109000c000dd00f3
:100858000000200020179800311798002e109000f3
:10086800be1090006112b800241798003517980040
:100878002e119000be11900002007000838070005d
:10088800e00f5000e08f58000b003a001e0990005e
:10089800ae099000f0bf200001002000800f510039
:1008a800818f5900040036009e0890002e089000a1
:1008b80022042400fc0107001e099000ae099000e4
:1008c800f0bf200001002000800f5100818f5900e7
:1008d800040036001e099000ae0990000080200038
:1008e800f300070010c0b300e70007007bff3700e4
:1008f80000002000f10f2000300f9800410f9800f1
:10090800be0890004e089000d4010700500f9800d0
:10091800610f98007a00470041002000c8000700d6
:1009280020002000f10f2000300f9800410f9800a0
:10093800be0890004e089000c8010700500f9800ac
:10094800610f98007a00470041002000bc000700b2
:1009580062ff370030c0b300cb0007000040eb0057
:10096800c900070010c0b300c70007005bff3700cd
:10097800c701070059ff37000000eb00000f78009f
:10098800140037001e0078008000780000802000e6
:10099800008040001e0fe800610007001e0078007c
:1009a8008000780000802000008040001e0fe800d2
:1009b8005b0007001e00780080007800008020009f
:1009c800008040001e0fe8005500070010c0b3006b
:1009d800ad000700300220009e0f1000e9ff340030
:1009e8003eff3700aa0107003cff3700a3010700bc
:1009f8003aff37000040eb00a300070037ff37003d
:100a08000000fa003d00070000102e000100200041
:100a18001100070020c2bf0091cfb3000140600061
:100a280020e2b7002002a900020007000080fa00b7
:100a3800000006000000fa0021c2bf00c1cfb300c9
:100a48000140600021e2b70021e2a8002342a8008b
:100a58000080fa00000006000800fa00200798004d
:100a6800310798002e019000be019000004022003e
:100a7800410f2000aafe0700008fbe001e0078006c
:100a88006f0160006000b8000300200002007000e1
:100a9800838070007200200003002000820f500045
:100aa800838f5800070036001e00be004c09dd0089
:100ab8004400de0000007100c408de00008fbe00a4
:100ac800090037001e00be00cc09dd004400de002e
:100ad80000807100c408de000081eb008081eb001b
:100ae800021f4000039748001e007800401188004c
:100af8002062a9000080fa00000006000000fa0049
:100b080021e2a9002342a9000080fa0000000600a3
:100b18000000fa00090107000080fa000000060042
:100b28000400fa001007980085c0bf00614060000b
:100b38000004e000040032009e0090000040eb003a
:100b4800804878001600370022c2bf006440600069
:100b58000004e0000300320030118000004f7800ec
:100b68000000fe0022c2bf00624060000004e000f6
:100b7800020032002222a9000000fe0022c2bf00ab
:100b8800614060000004e000e7ff320011e1a900c5
:100b980030118000804078001e00900001487800e5
:100ba8000080fa00000006000c00fa0030079800e8
:100bb80042079800530798000000eb00000f7800e8
:100bc8001a003700ce0090005e0090002301070055
:100bd8001007980021079800ce4090003e00900032
:100be800014878003e0090008000e8003e409000f8
:100bf800804878003e0090008080e8002e409000f9
:100c0800804878003e00900063004000300798005c
:100c18004e009000de00900062004000e080480036
:100c280040079800510798001e0fe800f01f2000a9
:100c38009e0f1000e3ff34000080fa000000060059
:100c48000600fa0010079800210798000000eb0042
:100c5800000f7800070037001e0078008000780039
:100c68001e00900000804000104078000600070039
:100c78001e0fe8002e0090009e0f1000f6ff3500b2
:100c88000080fa00000006000200fa00004f780019
:100c980023c2bf00624060000004e000fcff3a008d
:100ca8001e00fb00201188000080fa0000000600ea
:100cb8001600fa00000f9800120f9800230f9800f2
:100cc8000000eb00100798000000eb00000f780010
:100cd8004d0037001e007800800078000e08900054
:100ce8000080400010407800404798009e0078003f
:100cf8000e089000008040000000e80010407800d6
:100d0800504798009e0078000e0890000080400030
:100d18000080e80010407800604798000040eb0031
:100d2800704798001e007800630f40002e00900066
:100d38003e0190009e0890002e0a900080017800e5
:100d480004007800bb0007001e089000ae08900061
:100d58007f0160006000b8000300200002007000fe
:100d6800838070008201200003002000820f500061
:100d7800838f580008003a001e089000ae089000c3
:100d880040079800510798002e009000be00900080
:100d980060079800710798001e0090000000e000ae
:100da800100032001e0090000000e800800078006b
:100db800f0032000008060000000e00009003a0015
:100dc8006e0090007e019000ce0090005e029000c0
:100dd80080017800040078009600070010002400c5
:100de8007f0007001e089000ae08900062004000d7
:100df800e0804800100f9800210f98001e00900016
:100e08000000e800100798009e009000f01f2000e6
:100e1800808f5000afff34000080fa000000060009
:100e28000000fa000080fa00000006000400fa0042
:100e380020479800ff3ffc00103a8000000f780020
:100e48002e409000674060000080fb006700600053
:100e5800c800dd00f08f2f001e0f60001e8f70008d
:100e68001e00a0000e0078000000e8001040780086
:100e78000081fb0081072000a009200033742000b6
:100e88008149780080497800824978000e0078000e
:100e9800104078000081fb006104200070052000ec
:100ea80023742000814978008049780082497800bd
:100eb8000000fc0001003700d9ff070042c7bf004f
:100ec800614060000004e000fbff3a002e40900003
:100ed800e14f5000050032002e409000e34f5000d3
:100ee80008003a0001003700cdff070042c7bf00e5
:100ef8000042b2000004e000fbff320001003700ae
:100f0800c7ff070043c7bf000080fb004400de00a6
:100f1800674060008080fb002e4090000080fb004e
:100f2800808f5000f6ff3a000080fa0000000600ab
:100f38000000fa000080fa00000006000000fa0035
:100f48000040eb00b9ff070045c7bf0081cfb300e1
:100f58000140600045e7b70010c0b300b3ff0700c9
:100f68000080fa00000006000000fa0045c7bf0034
:100f780081cfb3000140600045e7b7000040eb00b7
:100f8800aaff07000080fa00000006000000fa002f
:100f980020c0b300a5ff07000080fa00000006008b
:100fa8000000fa000040eb00a0ff070045c7bf00a3
:100fb80081cfb3000140600045e7b70030c0b300ff
:100fc8009aff07000080fa00000006000000fa00ff
:100fd80020c0b30095ff07000080fa00000006005b
:100fe8000200fa00000f7800003b8800500520003e
:100ff800303b8800a00a2000303b880061e7a80049
:10100800000000000000000061e7af00feff3700ad
:101018000080fa00000006000400fa00000f7800c3
:101028001107980090018800810078000080fa007c
:10103800000006000800fa00000f78001107980069
:101048002207980033079800900188008308bb00a6
:101058008288bb000080fa00000006000400fa0045
:10106800000f780011079800900188001100ba005d
:101078009180ba000080fa00000006000000fa0023
:10108800000e0400000000000080fa0000000600c6
:101098000000fa004007a800000e0400000000004d
:1010a8000080fa00000006000600fa00000f780031
:1010b80011079800220798003200f800023b8800c8
:1010c800900188008108bb0050052000303b880053
:1010d800a00a2000303b880061e7a800000000005b
:1010e8000000000061e7af00feff37003200f900a2
:0810f8000080fa000000060070
:020000040000fa
:0411000000000000eb
:00000001FF
